{
  "_format": "hh3-artifact-1",
  "contractName": "YourCollectible",
  "sourceName": "contracts/YourCollectible.sol",
  "abi": [
    {
      "inputs": [
        {
          "internalType": "address",
          "name": "initialOwner",
          "type": "address"
        }
      ],
      "stateMutability": "nonpayable",
      "type": "constructor"
    },
    {
      "inputs": [],
      "name": "ERC721EnumerableForbiddenBatchMint",
      "type": "error"
    },
    {
      "inputs": [
        {
          "internalType": "address",
          "name": "sender",
          "type": "address"
        },
        {
          "internalType": "uint256",
          "name": "tokenId",
          "type": "uint256"
        },
        {
          "internalType": "address",
          "name": "owner",
          "type": "address"
        }
      ],
      "name": "ERC721IncorrectOwner",
      "type": "error"
    },
    {
      "inputs": [
        {
          "internalType": "address",
          "name": "operator",
          "type": "address"
        },
        {
          "internalType": "uint256",
          "name": "tokenId",
          "type": "uint256"
        }
      ],
      "name": "ERC721InsufficientApproval",
      "type": "error"
    },
    {
      "inputs": [
        {
          "internalType": "address",
          "name": "approver",
          "type": "address"
        }
      ],
      "name": "ERC721InvalidApprover",
      "type": "error"
    },
    {
      "inputs": [
        {
          "internalType": "address",
          "name": "operator",
          "type": "address"
        }
      ],
      "name": "ERC721InvalidOperator",
      "type": "error"
    },
    {
      "inputs": [
        {
          "internalType": "address",
          "name": "owner",
          "type": "address"
        }
      ],
      "name": "ERC721InvalidOwner",
      "type": "error"
    },
    {
      "inputs": [
        {
          "internalType": "address",
          "name": "receiver",
          "type": "address"
        }
      ],
      "name": "ERC721InvalidReceiver",
      "type": "error"
    },
    {
      "inputs": [
        {
          "internalType": "address",
          "name": "sender",
          "type": "address"
        }
      ],
      "name": "ERC721InvalidSender",
      "type": "error"
    },
    {
      "inputs": [
        {
          "internalType": "uint256",
          "name": "tokenId",
          "type": "uint256"
        }
      ],
      "name": "ERC721NonexistentToken",
      "type": "error"
    },
    {
      "inputs": [
        {
          "internalType": "address",
          "name": "owner",
          "type": "address"
        },
        {
          "internalType": "uint256",
          "name": "index",
          "type": "uint256"
        }
      ],
      "name": "ERC721OutOfBoundsIndex",
      "type": "error"
    },
    {
      "inputs": [
        {
          "internalType": "address",
          "name": "owner",
          "type": "address"
        }
      ],
      "name": "OwnableInvalidOwner",
      "type": "error"
    },
    {
      "inputs": [
        {
          "internalType": "address",
          "name": "account",
          "type": "address"
        }
      ],
      "name": "OwnableUnauthorizedAccount",
      "type": "error"
    },
    {
      "anonymous": false,
      "inputs": [
        {
          "indexed": true,
          "internalType": "address",
          "name": "owner",
          "type": "address"
        },
        {
          "indexed": true,
          "internalType": "address",
          "name": "approved",
          "type": "address"
        },
        {
          "indexed": true,
          "internalType": "uint256",
          "name": "tokenId",
          "type": "uint256"
        }
      ],
      "name": "Approval",
      "type": "event"
    },
    {
      "anonymous": false,
      "inputs": [
        {
          "indexed": true,
          "internalType": "address",
          "name": "owner",
          "type": "address"
        },
        {
          "indexed": true,
          "internalType": "address",
          "name": "operator",
          "type": "address"
        },
        {
          "indexed": false,
          "internalType": "bool",
          "name": "approved",
          "type": "bool"
        }
      ],
      "name": "ApprovalForAll",
      "type": "event"
    },
    {
      "anonymous": false,
      "inputs": [
        {
          "indexed": false,
          "internalType": "uint256",
          "name": "_fromTokenId",
          "type": "uint256"
        },
        {
          "indexed": false,
          "internalType": "uint256",
          "name": "_toTokenId",
          "type": "uint256"
        }
      ],
      "name": "BatchMetadataUpdate",
      "type": "event"
    },
    {
      "anonymous": false,
      "inputs": [
        {
          "indexed": false,
          "internalType": "uint256",
          "name": "_tokenId",
          "type": "uint256"
        }
      ],
      "name": "MetadataUpdate",
      "type": "event"
    },
    {
      "anonymous": false,
      "inputs": [
        {
          "indexed": true,
          "internalType": "address",
          "name": "previousOwner",
          "type": "address"
        },
        {
          "indexed": true,
          "internalType": "address",
          "name": "newOwner",
          "type": "address"
        }
      ],
      "name": "OwnershipTransferred",
      "type": "event"
    },
    {
      "anonymous": false,
      "inputs": [
        {
          "indexed": true,
          "internalType": "address",
          "name": "from",
          "type": "address"
        },
        {
          "indexed": true,
          "internalType": "address",
          "name": "to",
          "type": "address"
        },
        {
          "indexed": true,
          "internalType": "uint256",
          "name": "tokenId",
          "type": "uint256"
        }
      ],
      "name": "Transfer",
      "type": "event"
    },
    {
      "inputs": [
        {
          "internalType": "address",
          "name": "to",
          "type": "address"
        },
        {
          "internalType": "uint256",
          "name": "tokenId",
          "type": "uint256"
        }
      ],
      "name": "approve",
      "outputs": [],
      "stateMutability": "nonpayable",
      "type": "function"
    },
    {
      "inputs": [
        {
          "internalType": "address",
          "name": "owner",
          "type": "address"
        }
      ],
      "name": "balanceOf",
      "outputs": [
        {
          "internalType": "uint256",
          "name": "",
          "type": "uint256"
        }
      ],
      "stateMutability": "view",
      "type": "function"
    },
    {
      "inputs": [
        {
          "internalType": "uint256",
          "name": "tokenId",
          "type": "uint256"
        }
      ],
      "name": "getApproved",
      "outputs": [
        {
          "internalType": "address",
          "name": "",
          "type": "address"
        }
      ],
      "stateMutability": "view",
      "type": "function"
    },
    {
      "inputs": [
        {
          "internalType": "address",
          "name": "owner",
          "type": "address"
        },
        {
          "internalType": "address",
          "name": "operator",
          "type": "address"
        }
      ],
      "name": "isApprovedForAll",
      "outputs": [
        {
          "internalType": "bool",
          "name": "",
          "type": "bool"
        }
      ],
      "stateMutability": "view",
      "type": "function"
    },
    {
      "inputs": [
        {
          "internalType": "address",
          "name": "to",
          "type": "address"
        },
        {
          "internalType": "string",
          "name": "uri",
          "type": "string"
        }
      ],
      "name": "mintItem",
      "outputs": [
        {
          "internalType": "uint256",
          "name": "",
          "type": "uint256"
        }
      ],
      "stateMutability": "nonpayable",
      "type": "function"
    },
    {
      "inputs": [],
      "name": "name",
      "outputs": [
        {
          "internalType": "string",
          "name": "",
          "type": "string"
        }
      ],
      "stateMutability": "view",
      "type": "function"
    },
    {
      "inputs": [],
      "name": "owner",
      "outputs": [
        {
          "internalType": "address",
          "name": "",
          "type": "address"
        }
      ],
      "stateMutability": "view",
      "type": "function"
    },
    {
      "inputs": [
        {
          "internalType": "uint256",
          "name": "tokenId",
          "type": "uint256"
        }
      ],
      "name": "ownerOf",
      "outputs": [
        {
          "internalType": "address",
          "name": "",
          "type": "address"
        }
      ],
      "stateMutability": "view",
      "type": "function"
    },
    {
      "inputs": [],
      "name": "renounceOwnership",
      "outputs": [],
      "stateMutability": "nonpayable",
      "type": "function"
    },
    {
      "inputs": [
        {
          "internalType": "address",
          "name": "from",
          "type": "address"
        },
        {
          "internalType": "address",
          "name": "to",
          "type": "address"
        },
        {
          "internalType": "uint256",
          "name": "tokenId",
          "type": "uint256"
        }
      ],
      "name": "safeTransferFrom",
      "outputs": [],
      "stateMutability": "nonpayable",
      "type": "function"
    },
    {
      "inputs": [
        {
          "internalType": "address",
          "name": "from",
          "type": "address"
        },
        {
          "internalType": "address",
          "name": "to",
          "type": "address"
        },
        {
          "internalType": "uint256",
          "name": "tokenId",
          "type": "uint256"
        },
        {
          "internalType": "bytes",
          "name": "data",
          "type": "bytes"
        }
      ],
      "name": "safeTransferFrom",
      "outputs": [],
      "stateMutability": "nonpayable",
      "type": "function"
    },
    {
      "inputs": [
        {
          "internalType": "address",
          "name": "operator",
          "type": "address"
        },
        {
          "internalType": "bool",
          "name": "approved",
          "type": "bool"
        }
      ],
      "name": "setApprovalForAll",
      "outputs": [],
      "stateMutability": "nonpayable",
      "type": "function"
    },
    {
      "inputs": [
        {
          "internalType": "bytes4",
          "name": "interfaceId",
          "type": "bytes4"
        }
      ],
      "name": "supportsInterface",
      "outputs": [
        {
          "internalType": "bool",
          "name": "",
          "type": "bool"
        }
      ],
      "stateMutability": "view",
      "type": "function"
    },
    {
      "inputs": [],
      "name": "symbol",
      "outputs": [
        {
          "internalType": "string",
          "name": "",
          "type": "string"
        }
      ],
      "stateMutability": "view",
      "type": "function"
    },
    {
      "inputs": [
        {
          "internalType": "uint256",
          "name": "index",
          "type": "uint256"
        }
      ],
      "name": "tokenByIndex",
      "outputs": [
        {
          "internalType": "uint256",
          "name": "",
          "type": "uint256"
        }
      ],
      "stateMutability": "view",
      "type": "function"
    },
    {
      "inputs": [
        {
          "internalType": "address",
          "name": "owner",
          "type": "address"
        },
        {
          "internalType": "uint256",
          "name": "index",
          "type": "uint256"
        }
      ],
      "name": "tokenOfOwnerByIndex",
      "outputs": [
        {
          "internalType": "uint256",
          "name": "",
          "type": "uint256"
        }
      ],
      "stateMutability": "view",
      "type": "function"
    },
    {
      "inputs": [
        {
          "internalType": "uint256",
          "name": "tokenId",
          "type": "uint256"
        }
      ],
      "name": "tokenURI",
      "outputs": [
        {
          "internalType": "string",
          "name": "",
          "type": "string"
        }
      ],
      "stateMutability": "view",
      "type": "function"
    },
    {
      "inputs": [],
      "name": "totalSupply",
      "outputs": [
        {
          "internalType": "uint256",
          "name": "",
          "type": "uint256"
        }
      ],
      "stateMutability": "view",
      "type": "function"
    },
    {
      "inputs": [
        {
          "internalType": "address",
          "name": "from",
          "type": "address"
        },
        {
          "internalType": "address",
          "name": "to",
          "type": "address"
        },
        {
          "internalType": "uint256",
          "name": "tokenId",
          "type": "uint256"
        }
      ],
      "name": "transferFrom",
      "outputs": [],
      "stateMutability": "nonpayable",
      "type": "function"
    },
    {
      "inputs": [
        {
          "internalType": "address",
          "name": "newOwner",
          "type": "address"
        }
      ],
      "name": "transferOwnership",
      "outputs": [],
      "stateMutability": "nonpayable",
      "type": "function"
    }
  ],
  "bytecode": "0x608060405234801561000f575f5ffd5b50604051611a08380380611a0883398101604081905261002e9161011f565b806040518060400160405280600f81526020016e596f7572436f6c6c65637469626c6560881b815250604051806040016040528060038152602001622ca1a160e91b815250815f908161008191906101e4565b50600161008e82826101e4565b5050506001600160a01b0381166100be57604051631e4fbdf760e01b81525f600482015260240160405180910390fd5b6100c7816100ce565b505061029e565b600b80546001600160a01b038381166001600160a01b0319831681179093556040519116919082907f8be0079c531659141344cd1fd0a4f28419497f9722a3daafe3b4186f6b6457e0905f90a35050565b5f6020828403121561012f575f5ffd5b81516001600160a01b0381168114610145575f5ffd5b9392505050565b634e487b7160e01b5f52604160045260245ffd5b600181811c9082168061017457607f821691505b60208210810361019257634e487b7160e01b5f52602260045260245ffd5b50919050565b601f8211156101df57805f5260205f20601f840160051c810160208510156101bd5750805b601f840160051c820191505b818110156101dc575f81556001016101c9565b50505b505050565b81516001600160401b038111156101fd576101fd61014c565b6102118161020b8454610160565b84610198565b6020601f821160018114610243575f831561022c5750848201515b5f19600385901b1c1916600184901b1784556101dc565b5f84815260208120601f198516915b828110156102725787850151825560209485019460019092019101610252565b508482101561028f57868401515f19600387901b60f8161c191681555b50505050600190811b01905550565b61175d806102ab5f395ff3fe608060405234801561000f575f5ffd5b5060043610610127575f3560e01c80636352211e116100a9578063a22cb4651161006e578063a22cb46514610264578063b88d4fde14610277578063c87b56dd1461028a578063e985e9c51461029d578063f2fde38b146102b0575f5ffd5b80636352211e1461021d57806370a0823114610230578063715018a6146102435780638da5cb5b1461024b57806395d89b411461025c575f5ffd5b806318160ddd116100ef57806318160ddd146101c957806323b872dd146101d15780632f745c59146101e457806342842e0e146101f75780634f6ccce71461020a575f5ffd5b806301ffc9a71461012b57806306fdde0314610153578063081812fc14610168578063095ea7b314610193578063110bcd45146101a8575b5f5ffd5b61013e610139366004611235565b6102c3565b60405190151581526020015b60405180910390f35b61015b6102d3565b60405161014a919061127e565b61017b610176366004611290565b610362565b6040516001600160a01b03909116815260200161014a565b6101a66101a13660046112c2565b610389565b005b6101bb6101b6366004611375565b610398565b60405190815260200161014a565b6008546101bb565b6101a66101df3660046113d3565b6103cc565b6101bb6101f23660046112c2565b61045a565b6101a66102053660046113d3565b6104bd565b6101bb610218366004611290565b6104dc565b61017b61022b366004611290565b610531565b6101bb61023e36600461140d565b61053b565b6101a6610580565b600b546001600160a01b031661017b565b61015b610593565b6101a6610272366004611426565b6105a2565b6101a661028536600461145f565b6105ad565b61015b610298366004611290565b6105c5565b61013e6102ab3660046114d6565b6105d0565b6101a66102be36600461140d565b6105fd565b5f6102cd8261063a565b92915050565b60605f80546102e190611507565b80601f016020809104026020016040519081016040528092919081815260200182805461030d90611507565b80156103585780601f1061032f57610100808354040283529160200191610358565b820191905f5260205f20905b81548152906001019060200180831161033b57829003601f168201915b5050505050905090565b5f61036c8261065e565b505f828152600460205260409020546001600160a01b03166102cd565b610394828233610696565b5050565b600c80545f91829190826103ab83611553565b9190505590506103bb84826106a3565b6103c581846106bc565b9392505050565b6001600160a01b0382166103fa57604051633250574960e11b81525f60048201526024015b60405180910390fd5b5f61040683833361070b565b9050836001600160a01b0316816001600160a01b031614610454576040516364283d7b60e01b81526001600160a01b03808616600483015260248201849052821660448201526064016103f1565b50505050565b5f6104648361053b565b82106104955760405163295f44f760e21b81526001600160a01b0384166004820152602481018390526044016103f1565b506001600160a01b03919091165f908152600660209081526040808320938352929052205490565b6104d783838360405180602001604052805f8152506105ad565b505050565b5f6104e660085490565b821061050e5760405163295f44f760e21b81525f6004820152602481018390526044016103f1565b600882815481106105215761052161156b565b905f5260205f2001549050919050565b5f6102cd8261065e565b5f6001600160a01b038216610565576040516322718ad960e21b81525f60048201526024016103f1565b506001600160a01b03165f9081526003602052604090205490565b61058861071f565b6105915f61074c565b565b6060600180546102e190611507565b61039433838361079d565b6105b88484846103cc565b610454338585858561083b565b60606102cd82610963565b6001600160a01b039182165f90815260056020908152604080832093909416825291909152205460ff1690565b61060561071f565b6001600160a01b03811661062e57604051631e4fbdf760e01b81525f60048201526024016103f1565b6106378161074c565b50565b5f6001600160e01b03198216632483248360e11b14806102cd57506102cd82610a66565b5f818152600260205260408120546001600160a01b0316806102cd57604051637e27328960e01b8152600481018490526024016103f1565b6104d78383836001610a8a565b610394828260405180602001604052805f815250610b8e565b5f828152600a602052604090206106d382826115c3565b506040518281527ff8e1a15aba9398e019f0b49df1a4fde98ee17ae345cb5f6b5e2c27f5033e8ce79060200160405180910390a15050565b5f610717848484610ba5565b949350505050565b600b546001600160a01b031633146105915760405163118cdaa760e01b81523360048201526024016103f1565b600b80546001600160a01b038381166001600160a01b0319831681179093556040519116919082907f8be0079c531659141344cd1fd0a4f28419497f9722a3daafe3b4186f6b6457e0905f90a35050565b6001600160a01b0382166107cf57604051630b61174360e31b81526001600160a01b03831660048201526024016103f1565b6001600160a01b038381165f81815260056020908152604080832094871680845294825291829020805460ff191686151590811790915591519182527f17307eab39ab6107e8899845ad3d59bd9653f200f220920489ca2b5937696c31910160405180910390a3505050565b6001600160a01b0383163b1561095c57604051630a85bd0160e11b81526001600160a01b0384169063150b7a029061087d90889088908790879060040161167e565b6020604051808303815f875af19250505080156108b7575060408051601f3d908101601f191682019092526108b4918101906116ba565b60015b61091e573d8080156108e4576040519150601f19603f3d011682016040523d82523d5f602084013e6108e9565b606091505b5080515f0361091657604051633250574960e11b81526001600160a01b03851660048201526024016103f1565b805160208201fd5b6001600160e01b03198116630a85bd0160e11b1461095a57604051633250574960e11b81526001600160a01b03851660048201526024016103f1565b505b5050505050565b606061096e8261065e565b505f828152600a60205260408120805461098790611507565b80601f01602080910402602001604051908101604052809291908181526020018280546109b390611507565b80156109fe5780601f106109d5576101008083540402835291602001916109fe565b820191905f5260205f20905b8154815290600101906020018083116109e157829003601f168201915b505050505090505f610a1a60408051602081019091525f815290565b905080515f03610a2b575092915050565b815115610a5d578082604051602001610a459291906116ec565b60405160208183030381529060405292505050919050565b61071784610c70565b5f6001600160e01b0319821663780e9d6360e01b14806102cd57506102cd82610ce0565b8080610a9e57506001600160a01b03821615155b15610b5f575f610aad8461065e565b90506001600160a01b03831615801590610ad95750826001600160a01b0316816001600160a01b031614155b8015610aec5750610aea81846105d0565b155b15610b155760405163a9fbf51f60e01b81526001600160a01b03841660048201526024016103f1565b8115610b5d5783856001600160a01b0316826001600160a01b03167f8c5be1e5ebec7d5bd14f71427d1e84f3dd0314c0f7b2291e5b200ac8c7c3b92560405160405180910390a45b505b50505f90815260046020526040902080546001600160a01b0319166001600160a01b0392909216919091179055565b610b988383610d2f565b6104d7335f85858561083b565b5f5f610bb2858585610d90565b90506001600160a01b038116610c0e57610c0984600880545f838152600960205260408120829055600182018355919091527ff3f7a9fe364faab93b216da50a3214154f22a0a2b415b23a84c8169e8b636ee30155565b610c31565b846001600160a01b0316816001600160a01b031614610c3157610c318185610e82565b6001600160a01b038516610c4d57610c4884610eff565b610717565b846001600160a01b0316816001600160a01b031614610717576107178585610fa6565b6060610c7b8261065e565b505f610c9160408051602081019091525f815290565b90505f815111610caf5760405180602001604052805f8152506103c5565b80610cb984610ff4565b604051602001610cca9291906116ec565b6040516020818303038152906040529392505050565b5f6001600160e01b031982166380ac58cd60e01b1480610d1057506001600160e01b03198216635b5e139f60e01b145b806102cd57506301ffc9a760e01b6001600160e01b03198316146102cd565b6001600160a01b038216610d5857604051633250574960e11b81525f60048201526024016103f1565b5f610d6483835f61070b565b90506001600160a01b038116156104d7576040516339e3563760e11b81525f60048201526024016103f1565b5f828152600260205260408120546001600160a01b0390811690831615610dbc57610dbc818486611084565b6001600160a01b03811615610df657610dd75f855f5f610a8a565b6001600160a01b0381165f90815260036020526040902080545f190190555b6001600160a01b03851615610e24576001600160a01b0385165f908152600360205260409020805460010190555b5f8481526002602052604080822080546001600160a01b0319166001600160a01b0389811691821790925591518793918516917fddf252ad1be2c89b69c2b068fc378daa952ba7f163c4a11628f55a4df523b3ef91a4949350505050565b5f610e8c8361053b565b5f838152600760209081526040808320546001600160a01b0388168452600690925290912091925090818314610ee1575f83815260208281526040808320548584528184208190558352600790915290208290555b5f938452600760209081526040808620869055938552525081205550565b6008545f90610f1090600190611700565b5f8381526009602052604081205460088054939450909284908110610f3757610f3761156b565b905f5260205f20015490508060088381548110610f5657610f5661156b565b5f918252602080832090910192909255828152600990915260408082208490558582528120556008805480610f8d57610f8d611713565b600190038181905f5260205f20015f9055905550505050565b5f6001610fb28461053b565b610fbc9190611700565b6001600160a01b039093165f908152600660209081526040808320868452825280832085905593825260079052919091209190915550565b60605f611000836110e8565b60010190505f8167ffffffffffffffff81111561101f5761101f6112ea565b6040519080825280601f01601f191660200182016040528015611049576020820181803683370190505b5090508181016020015b5f19016f181899199a1a9b1b9c1cb0b131b232b360811b600a86061a8153600a850494508461105357509392505050565b61108f8383836111bf565b6104d7576001600160a01b0383166110bd57604051637e27328960e01b8152600481018290526024016103f1565b60405163177e802f60e01b81526001600160a01b0383166004820152602481018290526044016103f1565b5f8072184f03e93ff9f4daa797ed6e38ed64bf6a1f0160401b83106111265772184f03e93ff9f4daa797ed6e38ed64bf6a1f0160401b830492506040015b6d04ee2d6d415b85acef81000000008310611152576d04ee2d6d415b85acef8100000000830492506020015b662386f26fc10000831061117057662386f26fc10000830492506010015b6305f5e1008310611188576305f5e100830492506008015b612710831061119c57612710830492506004015b606483106111ae576064830492506002015b600a83106102cd5760010192915050565b5f6001600160a01b038316158015906107175750826001600160a01b0316846001600160a01b031614806111f857506111f884846105d0565b806107175750505f908152600460205260409020546001600160a01b03908116911614919050565b6001600160e01b031981168114610637575f5ffd5b5f60208284031215611245575f5ffd5b81356103c581611220565b5f81518084528060208401602086015e5f602082860101526020601f19601f83011685010191505092915050565b602081525f6103c56020830184611250565b5f602082840312156112a0575f5ffd5b5035919050565b80356001600160a01b03811681146112bd575f5ffd5b919050565b5f5f604083850312156112d3575f5ffd5b6112dc836112a7565b946020939093013593505050565b634e487b7160e01b5f52604160045260245ffd5b5f5f67ffffffffffffffff841115611318576113186112ea565b50604051601f19601f85018116603f0116810181811067ffffffffffffffff82111715611347576113476112ea565b60405283815290508082840185101561135e575f5ffd5b838360208301375f60208583010152509392505050565b5f5f60408385031215611386575f5ffd5b61138f836112a7565b9150602083013567ffffffffffffffff8111156113aa575f5ffd5b8301601f810185136113ba575f5ffd5b6113c9858235602084016112fe565b9150509250929050565b5f5f5f606084860312156113e5575f5ffd5b6113ee846112a7565b92506113fc602085016112a7565b929592945050506040919091013590565b5f6020828403121561141d575f5ffd5b6103c5826112a7565b5f5f60408385031215611437575f5ffd5b611440836112a7565b915060208301358015158114611454575f5ffd5b809150509250929050565b5f5f5f5f60808587031215611472575f5ffd5b61147b856112a7565b9350611489602086016112a7565b925060408501359150606085013567ffffffffffffffff8111156114ab575f5ffd5b8501601f810187136114bb575f5ffd5b6114ca878235602084016112fe565b91505092959194509250565b5f5f604083850312156114e7575f5ffd5b6114f0836112a7565b91506114fe602084016112a7565b90509250929050565b600181811c9082168061151b57607f821691505b60208210810361153957634e487b7160e01b5f52602260045260245ffd5b50919050565b634e487b7160e01b5f52601160045260245ffd5b5f600182016115645761156461153f565b5060010190565b634e487b7160e01b5f52603260045260245ffd5b601f8211156104d757805f5260205f20601f840160051c810160208510156115a45750805b601f840160051c820191505b8181101561095c575f81556001016115b0565b815167ffffffffffffffff8111156115dd576115dd6112ea565b6115f1816115eb8454611507565b8461157f565b6020601f821160018114611623575f831561160c5750848201515b5f19600385901b1c1916600184901b17845561095c565b5f84815260208120601f198516915b828110156116525787850151825560209485019460019092019101611632565b508482101561166f57868401515f19600387901b60f8161c191681555b50505050600190811b01905550565b6001600160a01b03858116825284166020820152604081018390526080606082018190525f906116b090830184611250565b9695505050505050565b5f602082840312156116ca575f5ffd5b81516103c581611220565b5f81518060208401855e5f93019283525090919050565b5f6107176116fa83866116d5565b846116d5565b818103818111156102cd576102cd61153f565b634e487b7160e01b5f52603160045260245ffdfea26469706673582212201bdcf56efce00c356e91532eae35fc1df2044125e02184156f0569bb7784b7c664736f6c634300081c0033",
  "linkReferences": {},
  "deployedLinkReferences": {},
  "immutableReferences": {},
  "inputSourceName": "project/contracts/YourCollectible.sol",
  "buildInfoId": "solc-0_8_28-08edaa1d6aab88880f7cf6e006a8c54eb99b3579"
}